{
  "transactions": [
    {
      "hash": "0xcb9d512cda0ec06c65145d0d03f815e84c8aeba4c52eba9c69ecb50ca646e7c5",
      "transactionType": "CALL",
      "contractName": null,
      "contractAddress": "0x00ae1567c73f74b8445a013fd71e518e2efd326e",
      "function": "updateAllowedPredictionToken(address,bool)",
      "arguments": [
        "0x046d5f90aCffC86BA3E77dA42095C982481F28eC",
        "true"
      ],
      "transaction": {
        "from": "0x95436c3fb79468ae13fec1388cb7b5d7c4ee3e81",
        "to": "0x00ae1567c73f74b8445a013fd71e518e2efd326e",
        "gas": "0x3af8e",
        "value": "0x0",
        "input": "0x8e5d5ec0000000000000000000000000046d5f90acffc86ba3e77da42095c982481f28ec0000000000000000000000000000000000000000000000000000000000000001",
        "nonce": "0x11",
        "chainId": "0x279f"
      },
      "additionalContracts": [],
      "isFixedGasLimit": false
    }
  ],
  "receipts": [
    {
      "status": "0x1",
      "cumulativeGasUsed": "0x9d737a",
      "logs": [
        {
          "address": "0x00ae1567c73f74b8445a013fd71e518e2efd326e",
          "topics": [
            "0x8b0d2434abcd9d0f171b5b337c10821db3b538fed678c598033f0ef306226f71",
            "0x000000000000000000000000046d5f90acffc86ba3e77da42095c982481f28ec"
          ],
          "data": "0x0000000000000000000000000000000000000000000000000000000000000001",
          "blockHash": "0x3d0692b50565fd6826cf73bfab8cc7dd3ef19a6b7331562cf642166a985ab3ff",
          "blockNumber": "0x26e0ee1",
          "blockTimestamp": "0x68de93fb",
          "transactionHash": "0xcb9d512cda0ec06c65145d0d03f815e84c8aeba4c52eba9c69ecb50ca646e7c5",
          "transactionIndex": "0x10",
          "logIndex": "0x63",
          "removed": false
        }
      ],
      "logsBloom": "0x00000000000000000000000000000000000000000000000000000000000000000000000000000000000000000000000000000000000000000000000000000000000008000000000000000000000000000000000000000000000000000000000000000008000000000000000000000000000040000000000000000000000000000000000000200000000000000000000000002000000000000000010000000000000000000000000080000000000000000000000000000000000000000000000000000000000000000000000000000000000000000010000000000000000000000000000004000000000000000000000000000000000000000000000000000000",
      "type": "0x2",
      "transactionHash": "0xcb9d512cda0ec06c65145d0d03f815e84c8aeba4c52eba9c69ecb50ca646e7c5",
      "transactionIndex": "0x10",
      "blockHash": "0x3d0692b50565fd6826cf73bfab8cc7dd3ef19a6b7331562cf642166a985ab3ff",
      "blockNumber": "0x26e0ee1",
      "gasUsed": "0x3af8e",
      "effectiveGasPrice": "0xba43b7401",
      "from": "0x95436c3fb79468ae13fec1388cb7b5d7c4ee3e81",
      "to": "0x00ae1567c73f74b8445a013fd71e518e2efd326e",
      "contractAddress": null
    }
  ],
  "libraries": [],
  "pending": [],
  "returns": {},
  "timestamp": 1759417340,
  "chain": 10143,
  "commit": "3419267"
}