{
  "transactions": [
    {
      "hash": "0x15dc75c1184496175733de5a214a4d79f00ac1d246dab78edfa09456a6399021",
      "transactionType": "CALL",
      "contractName": null,
      "contractAddress": "0x00ae1567c73f74b8445a013fd71e518e2efd326e",
      "function": "updateAllowedPredictionToken(address,bool)",
      "arguments": [
        "0xe62dF6c8b4A85FE1A67db44Dc12de5db330f7aC6",
        "true"
      ],
      "transaction": {
        "from": "0x95436c3fb79468ae13fec1388cb7b5d7c4ee3e81",
        "to": "0x00ae1567c73f74b8445a013fd71e518e2efd326e",
        "gas": "0x3af8e",
        "value": "0x0",
        "input": "0x8e5d5ec0000000000000000000000000e62df6c8b4a85fe1a67db44dc12de5db330f7ac60000000000000000000000000000000000000000000000000000000000000001",
        "nonce": "0x10",
        "chainId": "0x279f"
      },
      "additionalContracts": [],
      "isFixedGasLimit": false
    }
  ],
  "receipts": [
    {
      "status": "0x1",
      "cumulativeGasUsed": "0x252db7",
      "logs": [
        {
          "address": "0x00ae1567c73f74b8445a013fd71e518e2efd326e",
          "topics": [
            "0x8b0d2434abcd9d0f171b5b337c10821db3b538fed678c598033f0ef306226f71",
            "0x000000000000000000000000e62df6c8b4a85fe1a67db44dc12de5db330f7ac6"
          ],
          "data": "0x0000000000000000000000000000000000000000000000000000000000000001",
          "blockHash": "0xf5fdb1b4068b7d94e0aa25999ed1039fa9375951570c2df7415ee8adb0224276",
          "blockNumber": "0x26e0e97",
          "blockTimestamp": "0x68de93db",
          "transactionHash": "0x15dc75c1184496175733de5a214a4d79f00ac1d246dab78edfa09456a6399021",
          "transactionIndex": "0xf",
          "logIndex": "0x1f",
          "removed": false
        }
      ],
      "logsBloom": "0x00000000000000000000000000000000000000000000000000000000000000000000000000000000000000000000000000000000000000000000000000000000000008000000000000000000000000000000000080000000000000000000000000000000000000000000000000000000000040000000000000000000000000000000000000200000000000000000000000002000000040000000010000000000000000000000000000000000000000000000000000000000000000000000000000000000000000800000000000000000000000000000000000000000000000000000000004000000000000000000000000000000000000000000000000000000",
      "type": "0x2",
      "transactionHash": "0x15dc75c1184496175733de5a214a4d79f00ac1d246dab78edfa09456a6399021",
      "transactionIndex": "0xf",
      "blockHash": "0xf5fdb1b4068b7d94e0aa25999ed1039fa9375951570c2df7415ee8adb0224276",
      "blockNumber": "0x26e0e97",
      "gasUsed": "0x3af8e",
      "effectiveGasPrice": "0xba43b7401",
      "from": "0x95436c3fb79468ae13fec1388cb7b5d7c4ee3e81",
      "to": "0x00ae1567c73f74b8445a013fd71e518e2efd326e",
      "contractAddress": null
    }
  ],
  "libraries": [],
  "pending": [],
  "returns": {},
  "timestamp": 1759417307,
  "chain": 10143,
  "commit": "3419267"
}