{
  "transactions": [
    {
      "hash": "0xffa94ed43b84cca1bc855a71c62b073dac6b5a83d03f0ad69ef12b9085dd2d34",
      "transactionType": "CALL",
      "contractName": null,
      "contractAddress": "0x00ae1567c73f74b8445a013fd71e518e2efd326e",
      "function": "updateAllowedPredictionToken(address,bool)",
      "arguments": [
        "0xD31a59c85aE9D8edEFeC411D448f90841571b89c",
        "true"
      ],
      "transaction": {
        "from": "0x95436c3fb79468ae13fec1388cb7b5d7c4ee3e81",
        "to": "0x00ae1567c73f74b8445a013fd71e518e2efd326e",
        "gas": "0x3af8e",
        "value": "0x0",
        "input": "0x8e5d5ec0000000000000000000000000d31a59c85ae9d8edefec411d448f90841571b89c0000000000000000000000000000000000000000000000000000000000000001",
        "nonce": "0xf",
        "chainId": "0x279f"
      },
      "additionalContracts": [],
      "isFixedGasLimit": false
    }
  ],
  "receipts": [
    {
      "status": "0x1",
      "cumulativeGasUsed": "0x496259",
      "logs": [
        {
          "address": "0x00ae1567c73f74b8445a013fd71e518e2efd326e",
          "topics": [
            "0x8b0d2434abcd9d0f171b5b337c10821db3b538fed678c598033f0ef306226f71",
            "0x000000000000000000000000d31a59c85ae9d8edefec411d448f90841571b89c"
          ],
          "data": "0x0000000000000000000000000000000000000000000000000000000000000001",
          "blockHash": "0x46403791216d180a549e7e9eb71dcc8c07caa93c403208a9ce9a113631a8470f",
          "blockNumber": "0x26e0e25",
          "blockTimestamp": "0x68de93ab",
          "transactionHash": "0xffa94ed43b84cca1bc855a71c62b073dac6b5a83d03f0ad69ef12b9085dd2d34",
          "transactionIndex": "0x17",
          "logIndex": "0x3c",
          "removed": false
        }
      ],
      "logsBloom": "0x00000000000000000000000000000000000000000000000000000000000000000000000000000000000000000000000000000000000000000000000000000000000008000000000000000000000000000000000000000000000000000000000000000000000000000000000000000000000040000000000000000000000000000000000000200000000000000000000000002000000000000000010000100000000000000000000000000000000000000000000000000000000000000000000000000000000000000000000000200000000000000000000000000000000000100000000004000000000000000000000000000000000000000000000000000000",
      "type": "0x2",
      "transactionHash": "0xffa94ed43b84cca1bc855a71c62b073dac6b5a83d03f0ad69ef12b9085dd2d34",
      "transactionIndex": "0x17",
      "blockHash": "0x46403791216d180a549e7e9eb71dcc8c07caa93c403208a9ce9a113631a8470f",
      "blockNumber": "0x26e0e25",
      "gasUsed": "0x3af8e",
      "effectiveGasPrice": "0xba43b7401",
      "from": "0x95436c3fb79468ae13fec1388cb7b5d7c4ee3e81",
      "to": "0x00ae1567c73f74b8445a013fd71e518e2efd326e",
      "contractAddress": null
    }
  ],
  "libraries": [],
  "pending": [],
  "returns": {},
  "timestamp": 1759417259,
  "chain": 10143,
  "commit": "3419267"
}