{
  "transactions": [
    {
      "hash": "0xde6540548a85ba36bbbabdd2e18425fd4c83f33d4ce3a77c794c44dd77686870",
      "transactionType": "CALL",
      "contractName": null,
      "contractAddress": "0x00ae1567c73f74b8445a013fd71e518e2efd326e",
      "function": "updateAllowedStakeAmount(address,uint256,bool)",
      "arguments": [
        "0xa0742C672e713327b0D6A4BfF34bBb4cbb319C53",
        "1500000000000000000",
        "true"
      ],
      "transaction": {
        "from": "0x95436c3fb79468ae13fec1388cb7b5d7c4ee3e81",
        "to": "0x00ae1567c73f74b8445a013fd71e518e2efd326e",
        "gas": "0x13fe4",
        "value": "0x0",
        "input": "0x99dbb493000000000000000000000000a0742c672e713327b0d6a4bff34bbb4cbb319c5300000000000000000000000000000000000000000000000014d1120d7b1600000000000000000000000000000000000000000000000000000000000000000001",
        "nonce": "0x19",
        "chainId": "0x279f"
      },
      "additionalContracts": [],
      "isFixedGasLimit": false
    }
  ],
  "receipts": [
    {
      "status": "0x1",
      "cumulativeGasUsed": "0x738a98",
      "logs": [
        {
          "address": "0x00ae1567c73f74b8445a013fd71e518e2efd326e",
          "topics": [
            "0x411c8d9d8ba80e9d5d7cc2b4d6070c165aae52e85a79254cd76bd15f64d0ac80",
            "0x000000000000000000000000a0742c672e713327b0d6a4bff34bbb4cbb319c53"
          ],
          "data": "0x00000000000000000000000000000000000000000000000014d1120d7b1600000000000000000000000000000000000000000000000000000000000000000001",
          "blockHash": "0x00839067454b2d92d37675f4e1871f926d46e731536bf3e056499957d6c94239",
          "blockNumber": "0x26e1390",
          "blockTimestamp": "0x68de95fd",
          "transactionHash": "0xde6540548a85ba36bbbabdd2e18425fd4c83f33d4ce3a77c794c44dd77686870",
          "transactionIndex": "0x18",
          "logIndex": "0x37",
          "removed": false
        }
      ],
      "logsBloom": "0x00000000000000000000000000000000000000000000000000000000000000000000000000000000000000000000000000000000000000000000000000000000000008000240000000000000000000000000000000080000000000000000000000000000000000000200000000000000000000000000000000000000000000000000000400000000000000000000000000002000000000000000000000000000000000000000000000000000000000000000000000000000000000000000000000000000000000000000000000000000000000000000000000000000000000000000000004000000000000000010000000000000000000000000000000000000",
      "type": "0x2",
      "transactionHash": "0xde6540548a85ba36bbbabdd2e18425fd4c83f33d4ce3a77c794c44dd77686870",
      "transactionIndex": "0x18",
      "blockHash": "0x00839067454b2d92d37675f4e1871f926d46e731536bf3e056499957d6c94239",
      "blockNumber": "0x26e1390",
      "gasUsed": "0x13fe4",
      "effectiveGasPrice": "0xba43b7401",
      "from": "0x95436c3fb79468ae13fec1388cb7b5d7c4ee3e81",
      "to": "0x00ae1567c73f74b8445a013fd71e518e2efd326e",
      "contractAddress": null
    }
  ],
  "libraries": [],
  "pending": [],
  "returns": {},
  "timestamp": 1759417854,
  "chain": 10143,
  "commit": "3419267"
}