{
  "transactions": [
    {
      "hash": "0x49143168d14e9da2d3ec4bac98516f7b736ee59cb230d452441b0a9b5acd9ccd",
      "transactionType": "CALL",
      "contractName": null,
      "contractAddress": "0x00ae1567c73f74b8445a013fd71e518e2efd326e",
      "function": "updateAllowedStakeAmount(address,uint256,bool)",
      "arguments": [
        "0xa0742C672e713327b0D6A4BfF34bBb4cbb319C53",
        "2500000000000000000",
        "true"
      ],
      "transaction": {
        "from": "0x95436c3fb79468ae13fec1388cb7b5d7c4ee3e81",
        "to": "0x00ae1567c73f74b8445a013fd71e518e2efd326e",
        "gas": "0x13fe4",
        "value": "0x0",
        "input": "0x99dbb493000000000000000000000000a0742c672e713327b0d6a4bff34bbb4cbb319c5300000000000000000000000000000000000000000000000022b1c8c1227a00000000000000000000000000000000000000000000000000000000000000000001",
        "nonce": "0x1a",
        "chainId": "0x279f"
      },
      "additionalContracts": [],
      "isFixedGasLimit": false
    }
  ],
  "receipts": [
    {
      "status": "0x1",
      "cumulativeGasUsed": "0x4e8d3f",
      "logs": [
        {
          "address": "0x00ae1567c73f74b8445a013fd71e518e2efd326e",
          "topics": [
            "0x411c8d9d8ba80e9d5d7cc2b4d6070c165aae52e85a79254cd76bd15f64d0ac80",
            "0x000000000000000000000000a0742c672e713327b0d6a4bff34bbb4cbb319c53"
          ],
          "data": "0x00000000000000000000000000000000000000000000000022b1c8c1227a00000000000000000000000000000000000000000000000000000000000000000001",
          "blockHash": "0x0efa5c4b7f1d881177dd17404c8577975cde3967e278fd974ee6663859d2bd46",
          "blockNumber": "0x26e13c5",
          "blockTimestamp": "0x68de9614",
          "transactionHash": "0x49143168d14e9da2d3ec4bac98516f7b736ee59cb230d452441b0a9b5acd9ccd",
          "transactionIndex": "0x1c",
          "logIndex": "0x3f",
          "removed": false
        }
      ],
      "logsBloom": "0x00000000000000000000000000000000000000000000000000000000000000000000000000000000000000000000000000000000000000000000000000000000000008000240000000000000000000000000000000080000000000000000000000000000000000000200000000000000000000000000000000000000000000000000000400000000000000000000000000002000000000000000000000000000000000000000000000000000000000000000000000000000000000000000000000000000000000000000000000000000000000000000000000000000000000000000000004000000000000000010000000000000000000000000000000000000",
      "type": "0x2",
      "transactionHash": "0x49143168d14e9da2d3ec4bac98516f7b736ee59cb230d452441b0a9b5acd9ccd",
      "transactionIndex": "0x1c",
      "blockHash": "0x0efa5c4b7f1d881177dd17404c8577975cde3967e278fd974ee6663859d2bd46",
      "blockNumber": "0x26e13c5",
      "gasUsed": "0x13fe4",
      "effectiveGasPrice": "0xba43b7401",
      "from": "0x95436c3fb79468ae13fec1388cb7b5d7c4ee3e81",
      "to": "0x00ae1567c73f74b8445a013fd71e518e2efd326e",
      "contractAddress": null
    }
  ],
  "libraries": [],
  "pending": [],
  "returns": {},
  "timestamp": 1759417876,
  "chain": 10143,
  "commit": "3419267"
}