{
  "transactions": [
    {
      "hash": "0xc5e3d208bd960a949939601be5a34ee311ebef2cc9ec264c216b03212bda13fb",
      "transactionType": "CALL",
      "contractName": null,
      "contractAddress": "0xa0742c672e713327b0d6a4bff34bbb4cbb319c53",
      "function": "setFeeCollector(address)",
      "arguments": [
        "0xb4a03C32C7cAa4069f89184f93dfAe065C141061"
      ],
      "transaction": {
        "from": "0x95436c3fb79468ae13fec1388cb7b5d7c4ee3e81",
        "to": "0xa0742c672e713327b0d6a4bff34bbb4cbb319c53",
        "gas": "0xc516",
        "value": "0x0",
        "input": "0xa42dce80000000000000000000000000b4a03c32c7caa4069f89184f93dfae065c141061",
        "nonce": "0x1b",
        "chainId": "0x279f"
      },
      "additionalContracts": [],
      "isFixedGasLimit": false
    }
  ],
  "receipts": [
    {
      "status": "0x1",
      "cumulativeGasUsed": "0x4947b8",
      "logs": [],
      "logsBloom": "0x00000000000000000000000000000000000000000000000000000000000000000000000000000000000000000000000000000000000000000000000000000000000000000000000000000000000000000000000000000000000000000000000000000000000000000000000000000000000000000000000000000000000000000000000000000000000000000000000000000000000000000000000000000000000000000000000000000000000000000000000000000000000000000000000000000000000000000000000000000000000000000000000000000000000000000000000000000000000000000000000000000000000000000000000000000000",
      "type": "0x2",
      "transactionHash": "0xc5e3d208bd960a949939601be5a34ee311ebef2cc9ec264c216b03212bda13fb",
      "transactionIndex": "0x14",
      "blockHash": "0xaf76e4da303b81182d7886f9947118bb3cad3c414dd3b2a8dc559d2545b9ff50",
      "blockNumber": "0x26e20d2",
      "gasUsed": "0xc516",
      "effectiveGasPrice": "0xba43b7401",
      "from": "0x95436c3fb79468ae13fec1388cb7b5d7c4ee3e81",
      "to": "0xa0742c672e713327b0d6a4bff34bbb4cbb319c53",
      "contractAddress": null
    }
  ],
  "libraries": [],
  "pending": [],
  "returns": {},
  "timestamp": 1759419300,
  "chain": 10143,
  "commit": "e7c2359"
}