{
  "transactions": [
    {
      "hash": "0x9c0f827a91520458bc07be9904513c508c941d26471938a8eb8749f478ab9937",
      "transactionType": "CALL",
      "contractName": null,
      "contractAddress": "0x00ae1567c73f74b8445a013fd71e518e2efd326e",
      "function": "updateAllowedPoolMultiplier(uint16,bool)",
      "arguments": [
        "500",
        "true"
      ],
      "transaction": {
        "from": "0x95436c3fb79468ae13fec1388cb7b5d7c4ee3e81",
        "to": "0x00ae1567c73f74b8445a013fd71e518e2efd326e",
        "gas": "0x2bfa2",
        "value": "0x0",
        "input": "0x608c18bc00000000000000000000000000000000000000000000000000000000000001f40000000000000000000000000000000000000000000000000000000000000001",
        "nonce": "0x2e",
        "chainId": "0x279f"
      },
      "additionalContracts": [],
      "isFixedGasLimit": false
    }
  ],
  "receipts": [
    {
      "status": "0x1",
      "cumulativeGasUsed": "0x2c793da",
      "logs": [
        {
          "address": "0x00ae1567c73f74b8445a013fd71e518e2efd326e",
          "topics": [
            "0x039fe60b956b3d15472616d963ffc878dfbb0658ed4b8ca2807c07387dccadfb"
          ],
          "data": "0x00000000000000000000000000000000000000000000000000000000000001f40000000000000000000000000000000000000000000000000000000000000001",
          "blockHash": "0xd0a55f313112ac8a6adebc40afbbc47abff15703c2f8fc1cd77b7c4370d26422",
          "blockNumber": "0x273d743",
          "blockTimestamp": "0x68e10a48",
          "transactionHash": "0x9c0f827a91520458bc07be9904513c508c941d26471938a8eb8749f478ab9937",
          "transactionIndex": "0x11",
          "logIndex": "0x115",
          "removed": false
        }
      ],
      "logsBloom": "0x00000000000000000000000000000000000000000000000000000000000000000000000000000000000000000000000000000000000000000000000000000000000008000000000000000000000000000000000000000000000000000000000000000000000000000000000000000000000000000000000000000000000000008000000000000000000000000000000000002000000000000000000000000000000000000000000000000000000000000000000000000000000000000000000000000000000000080000000000000000000000000000000000000000000001000000000004000000000000000000000000000000000000000000000000000000",
      "type": "0x2",
      "transactionHash": "0x9c0f827a91520458bc07be9904513c508c941d26471938a8eb8749f478ab9937",
      "transactionIndex": "0x11",
      "blockHash": "0xd0a55f313112ac8a6adebc40afbbc47abff15703c2f8fc1cd77b7c4370d26422",
      "blockNumber": "0x273d743",
      "gasUsed": "0x2bfa2",
      "effectiveGasPrice": "0xba43b7401",
      "from": "0x95436c3fb79468ae13fec1388cb7b5d7c4ee3e81",
      "to": "0x00ae1567c73f74b8445a013fd71e518e2efd326e",
      "contractAddress": null
    }
  ],
  "libraries": [],
  "pending": [],
  "returns": {},
  "timestamp": 1759578698,
  "chain": 10143,
  "commit": "8499315"
}