{
  "transactions": [
    {
      "hash": "0x00f2d60e5b681e3834a0ea77cbbb4f41355e2e0cb826fe3a86c47b54a7e3e8d3",
      "transactionType": "CALL",
      "contractName": null,
      "contractAddress": "0x00ae1567c73f74b8445a013fd71e518e2efd326e",
      "function": "updateAllowedPoolMultiplier(uint16,bool)",
      "arguments": [
        "400",
        "true"
      ],
      "transaction": {
        "from": "0x95436c3fb79468ae13fec1388cb7b5d7c4ee3e81",
        "to": "0x00ae1567c73f74b8445a013fd71e518e2efd326e",
        "gas": "0x2bfa2",
        "value": "0x0",
        "input": "0x608c18bc00000000000000000000000000000000000000000000000000000000000001900000000000000000000000000000000000000000000000000000000000000001",
        "nonce": "0x2d",
        "chainId": "0x279f"
      },
      "additionalContracts": [],
      "isFixedGasLimit": false
    }
  ],
  "receipts": [
    {
      "status": "0x1",
      "cumulativeGasUsed": "0x3a792f",
      "logs": [
        {
          "address": "0x00ae1567c73f74b8445a013fd71e518e2efd326e",
          "topics": [
            "0x039fe60b956b3d15472616d963ffc878dfbb0658ed4b8ca2807c07387dccadfb"
          ],
          "data": "0x00000000000000000000000000000000000000000000000000000000000001900000000000000000000000000000000000000000000000000000000000000001",
          "blockHash": "0x76288f43e62e24378385424fcd906f462a5350825128c23e7ab0440eb4bf4ef1",
          "blockNumber": "0x273d708",
          "blockTimestamp": "0x68e10a30",
          "transactionHash": "0x00f2d60e5b681e3834a0ea77cbbb4f41355e2e0cb826fe3a86c47b54a7e3e8d3",
          "transactionIndex": "0x16",
          "logIndex": "0x3e",
          "removed": false
        }
      ],
      "logsBloom": "0x00000000000000000000000000000000000000000000000000000000000000000000000000000000000000000000000000000000000000000000000000000000000008000000000000000000000000000000000000000000000000000000000000000000000000000000000000000000000000000000000000000000000000008000000000000000000000000000000000002000000000000000000000000000000000000000000000000000000000000000000000000000000000000000000000000000000000080000000000000000000000000000000000000000000001000000000004000000000000000000000000000000000000000000000000000000",
      "type": "0x2",
      "transactionHash": "0x00f2d60e5b681e3834a0ea77cbbb4f41355e2e0cb826fe3a86c47b54a7e3e8d3",
      "transactionIndex": "0x16",
      "blockHash": "0x76288f43e62e24378385424fcd906f462a5350825128c23e7ab0440eb4bf4ef1",
      "blockNumber": "0x273d708",
      "gasUsed": "0x2bfa2",
      "effectiveGasPrice": "0xba43b7401",
      "from": "0x95436c3fb79468ae13fec1388cb7b5d7c4ee3e81",
      "to": "0x00ae1567c73f74b8445a013fd71e518e2efd326e",
      "contractAddress": null
    }
  ],
  "libraries": [],
  "pending": [],
  "returns": {},
  "timestamp": 1759578672,
  "chain": 10143,
  "commit": "8499315"
}