{
  "transactions": [
    {
      "hash": "0xaaa49e3198a0e42af17c18a5e6c3c7a34a1fb814fea2a40727e481b139062cb0",
      "transactionType": "CALL",
      "contractName": null,
      "contractAddress": "0x00ae1567c73f74b8445a013fd71e518e2efd326e",
      "function": "updateAllowedPoolMultiplier(uint16,bool)",
      "arguments": [
        "1000",
        "true"
      ],
      "transaction": {
        "from": "0x95436c3fb79468ae13fec1388cb7b5d7c4ee3e81",
        "to": "0x00ae1567c73f74b8445a013fd71e518e2efd326e",
        "gas": "0x2bfa2",
        "value": "0x0",
        "input": "0x608c18bc00000000000000000000000000000000000000000000000000000000000003e80000000000000000000000000000000000000000000000000000000000000001",
        "nonce": "0x2f",
        "chainId": "0x279f"
      },
      "additionalContracts": [],
      "isFixedGasLimit": false
    }
  ],
  "receipts": [
    {
      "status": "0x1",
      "cumulativeGasUsed": "0x39b96e",
      "logs": [
        {
          "address": "0x00ae1567c73f74b8445a013fd71e518e2efd326e",
          "topics": [
            "0x039fe60b956b3d15472616d963ffc878dfbb0658ed4b8ca2807c07387dccadfb"
          ],
          "data": "0x00000000000000000000000000000000000000000000000000000000000003e80000000000000000000000000000000000000000000000000000000000000001",
          "blockHash": "0xfe531c67fe29ad94e4607634f52875638fc50ff2c78609393c0395dd865c1cd9",
          "blockNumber": "0x273d781",
          "blockTimestamp": "0x68e10a62",
          "transactionHash": "0xaaa49e3198a0e42af17c18a5e6c3c7a34a1fb814fea2a40727e481b139062cb0",
          "transactionIndex": "0xd",
          "logIndex": "0x2b",
          "removed": false
        }
      ],
      "logsBloom": "0x00000000000000000000000000000000000000000000000000000000000000000000000000000000000000000000000000000000000000000000000000000000000008000000000000000000000000000000000000000000000000000000000000000000000000000000000000000000000000000000000000000000000000008000000000000000000000000000000000002000000000000000000000000000000000000000000000000000000000000000000000000000000000000000000000000000000000080000000000000000000000000000000000000000000001000000000004000000000000000000000000000000000000000000000000000000",
      "type": "0x2",
      "transactionHash": "0xaaa49e3198a0e42af17c18a5e6c3c7a34a1fb814fea2a40727e481b139062cb0",
      "transactionIndex": "0xd",
      "blockHash": "0xfe531c67fe29ad94e4607634f52875638fc50ff2c78609393c0395dd865c1cd9",
      "blockNumber": "0x273d781",
      "gasUsed": "0x2bfa2",
      "effectiveGasPrice": "0xba43b7401",
      "from": "0x95436c3fb79468ae13fec1388cb7b5d7c4ee3e81",
      "to": "0x00ae1567c73f74b8445a013fd71e518e2efd326e",
      "contractAddress": null
    }
  ],
  "libraries": [],
  "pending": [],
  "returns": {},
  "timestamp": 1759578724,
  "chain": 10143,
  "commit": "8499315"
}