{
  "transactions": [
    {
      "hash": "0x5b6df06e16925ee189af20fbdf7b25fecbc52232157cc20081ae8cd77fdc37d8",
      "transactionType": "CALL",
      "contractName": null,
      "contractAddress": "0xa0742c672e713327b0d6a4bff34bbb4cbb319c53",
      "function": "grantAdminRole(address)",
      "arguments": [
        "0xb4a03C32C7cAa4069f89184f93dfAe065C141061"
      ],
      "transaction": {
        "from": "0x95436c3fb79468ae13fec1388cb7b5d7c4ee3e81",
        "to": "0xa0742c672e713327b0d6a4bff34bbb4cbb319c53",
        "gas": "0x123a3",
        "value": "0x0",
        "input": "0xc634b78e000000000000000000000000b4a03c32c7caa4069f89184f93dfae065c141061",
        "nonce": "0x30",
        "chainId": "0x279f"
      },
      "additionalContracts": [],
      "isFixedGasLimit": false
    }
  ],
  "receipts": [
    {
      "status": "0x1",
      "cumulativeGasUsed": "0xfcd29d",
      "logs": [
        {
          "address": "0xa0742c672e713327b0d6a4bff34bbb4cbb319c53",
          "topics": [
            "0x2f8788117e7eff1d82e926ec794901d17c78024a50270940304540a733656f0d",
            "0xa49807205ce4d355092ef5a8a18f56e8913cf4a201fbe287825b095693c21775",
            "0x000000000000000000000000b4a03c32c7caa4069f89184f93dfae065c141061",
            "0x00000000000000000000000095436c3fb79468ae13fec1388cb7b5d7c4ee3e81"
          ],
          "data": "0x",
          "blockHash": "0x34fd70c24311fbcb7ba0cc89a914d6ba3cc05498ff581318f7e0606d1e671040",
          "blockNumber": "0x27562b3",
          "blockTimestamp": "0x68e1b2af",
          "transactionHash": "0x5b6df06e16925ee189af20fbdf7b25fecbc52232157cc20081ae8cd77fdc37d8",
          "transactionIndex": "0x50",
          "logIndex": "0xa2",
          "removed": false
        }
      ],
      "logsBloom": "0x00000004000000000000000000000000000000000000000000004000000020000000000000000000000020000000000000000000000000000000080000000000000000000000000000000000000000000000000020000100000000000000000000000000040000000000000000020000000000000000000800000000000000000000000000000000000000000000004000000000400000000000000000000000000000000000000000000000000000000000000000000000001000000000000000000000000000000000000000000000000000000000000100000000000000000000000000000000000000000000000000000000000010000000000000000000",
      "type": "0x2",
      "transactionHash": "0x5b6df06e16925ee189af20fbdf7b25fecbc52232157cc20081ae8cd77fdc37d8",
      "transactionIndex": "0x50",
      "blockHash": "0x34fd70c24311fbcb7ba0cc89a914d6ba3cc05498ff581318f7e0606d1e671040",
      "blockNumber": "0x27562b3",
      "gasUsed": "0x123a3",
      "effectiveGasPrice": "0xba43b7401",
      "from": "0x95436c3fb79468ae13fec1388cb7b5d7c4ee3e81",
      "to": "0xa0742c672e713327b0d6a4bff34bbb4cbb319c53",
      "contractAddress": null
    }
  ],
  "libraries": [],
  "pending": [],
  "returns": {},
  "timestamp": 1759621808,
  "chain": 10143,
  "commit": "c5a67c5"
}